:100000000C943C000C9459000C9459000C94590029
:100010000C9459000C9459000C9459000C945900FC
:100020000C9459000C9459000C9459000C945900EC
:100030000C9459000C9459000C9459000C945900DC
:100040000C9459000C9459000C9459000C945900CC
:100050000C9459000C9459000C9459000C945900BC
:100060000C9459000C945900BA03D203F203120401
:10007000320452047304950411241FBECFEFD8E05C
:10008000DEBFCDBF11E0A0E0B1E0E2EFFFE002C0D3
:1000900005900D92A637B107D9F721E0A6E7B1E0A8
:1000A00001C01D92AF37B207E1F70E9403020C9422
:1000B000F7070C940000823079F484E08BB98BB997
:1000C0008BB98BB98BB98BB98BB98BB98BB98BB910
:1000D0008BB98BB98BB910C0833071F488E08BB9C0
:1000E0008BB98BB98BB98BB98BB98BB98BB98BB9F0
:1000F0008BB98BB98BB98BB91BB81BB81BB81BB8A4
:100100001BB81BB80895823041F484E08BB98BB9D9
:100110008BB98BB98BB98BB909C0833039F488E0BE
:100120008BB98BB98BB98BB98BB98BB91BB81BB891
:100130001BB81BB81BB81BB81BB81BB81BB81BB827
:100140001BB81BB81BB80895EF92FF920F931F9333
:10015000CF93DF93F82EE62E042F122FC7E0D0E0C6
:1001600014C08E2D90E00C2E02C0959587950A94B0
:10017000E2F780FF05C0812F90E00E945B0004C081
:10018000812F90E00E9483002197DD2354F7C7E080
:10019000D0E014C08F2D90E00C2E02C0959587956D
:1001A0000A94E2F780FF05C0812F90E00E945B0077
:1001B00004C0812F90E00E9483002197DD2354F733
:1001C000C7E0D0E014C0802F90E00C2E02C09595BF
:1001D00087950A94E2F780FF05C0812F90E00E9486
:1001E0005B0004C0812F90E00E9483002197DD23F3
:1001F00054F7DF91CF911F910F91FF90EF900895E9
:100200008BB1837F8BB987EC90E00197F1F700C049
:100210000000089585B18E7F85B985B1816085B96B
:1002200085B18E7F85B90895CF93C82F8BB19C2F50
:10023000907F8F70892B8BB90E940A0120E1C29FA9
:10024000C00111249BB19F70892B8BB90E940A01B8
:10025000CF910895EFE9FFE03197F1F700C000007A
:1002600095B19D7F95B90E9414010895CF93DF93B6
:10027000EA019FEF980F923000F59FEF960F9832AA
:10028000E0F4282F30E021503109862F90E4299F97
:10029000800D112481580E942A010CC08FE99FE033
:1002A0000197F1F700C0000085B1826085B989919E
:1002B0000E94140188818111F1CFDF91CF910895BF
:1002C00084B1836084B98AB1806F8AB985B18D7F2A
:1002D00085B98FE59AEE0197F1F700C000008BB168
:1002E0008F7080638BB90E940A018FE19EE40197B1
:1002F000F1F700C000000E940A018FE99FE001971A
:10030000F1F700C000000E940A018FE99FE0019709
:10031000F1F700C000008BB18F7080628BB90E9432
:100320000A0188E20E942A0188E00E942A0181E0F5
:100330000E942A0186E00E942A018CE00E942A0184
:1003400008950F931F93CF93DF938C01EB0181E00E
:100350000E942A01A80162E081E00E943601AE01FC
:1003600062E082E00E9436012FEF83EC99E0215099
:1003700080409040E1F700C0000081E00E942A0127
:100380002FEF83EC99E0215080409040E1F700C0CE
:100390000000A80162E081E00E943601AE0162E047
:1003A00082E00E9436012FEF83EC99E021508040DB
:1003B0009040E1F700C0000081E00E942A012FEF89
:1003C00083EC99E0215080409040E1F700C00000AC
:1003D000A80162E081E00E943601AE0162E082E0A5
:1003E0000E9436012FEF83EC99E02150804090402D
:1003F000E1F700C0000081E00E942A01DF91CF9167
:100400001F910F9108958AB18C608AB987B1807E5F
:1004100087B90E94600188B18F6088B9ECE7F0E08D
:10042000808180668083EAE7F0E08081876880834E
:10043000C0E00BC022E030E040E050E060E070E05F
:1004400080E090E00E94A400CF5F80910101C81776
:1004500088F34BE051E062E070E081E090E00E94C0
:10046000360142E151E062E070E082E090E00E94FB
:1004700036012FEF83ED90E3215080409040E1F76B
:1004800000C0000080917A01813009F4F7C020F0AB
:10049000823009F4D4C2F6CF69E171E08EE191E0D7
:1004A0000E94A10181E090E00E942A0145E251E012
:1004B00061E070E081E090E00E94360149E251E0A5
:1004C00065E070E081E090E00E9436014DE251E08D
:1004D00061E070E082E090E00E94360141E351E08B
:1004E00065E070E082E090E00E9436012FEF89E63F
:1004F00098E1215080409040E1F700C00000B8C072
:10050000309913C081E080937A011092790181E0E3
:1005100090E00E942A012FEF81EE94E0215080406C
:100520009040E1F700C00000A3C0319913C082E001
:1005300080937A011092790181E090E00E942A0173
:100540002FEF81EE94E0215080409040E1F700C011
:1005500000008EC0329942C081E080930001D0E05B
:100560001AC022E030E040E050E060E070E080E05F
:1005700090E00E94A400CF5F01C0C0E0DC1788F7C4
:100580000E9400018FE39CE90197F1F700C0000091
:1005900010920201DF5F80910101D81770F3C0E073
:1005A0000BC022E030E040E050E060E070E080E02E
:1005B00090E00E94A400CF5F80910101C81788F3EA
:1005C00081E090E00E942A019FEF21EE84E09150AB
:1005D00020408040E1F700C0000054CF339948C06C
:1005E00082E080930001D0E01DC04091760150E090
:1005F0006091770170E08091780122E030E090E036
:100600000E94A400CF5F01C0C0E0DC1770F70E9419
:1006100000018FE39CE90197F1F700C00000109200
:100620000201DF5F80910101D81770F3C0E00EC0B6
:100630004091760150E06091770170E080917801FF
:1006400022E030E090E00E94A400CF5F80910101A1
:10065000C81770F381E090E00E942A019FEF21EE1D
:1006600084E0915020408040E1F700C000000ACFB4
:1006700080917A01882309F443CF04CF65E371E0C8
:100680008EE191E00E94A101D4C1EBE7F1E08091FD
:1006900079018F5C8083118245E351E061E070E075
:1006A00081E090E00E9436014BE751E066E070E0A7
:1006B00081E090E00E9436014BE351E067E070E09A
:1006C00081E090E00E943601309918C08091790154
:1006D0008823A1F081508093790181E08093020109
:1006E00081E090E00E942A019FEF21EE84E091508A
:1006F00020408040E1F700C000002FC0319918C0B1
:10070000809179018730A0F48F5F8093790181E037
:100710008093020181E090E00E942A019FEF21EE88
:1007200084E0915020408040E1F700C0000015C0F7
:10073000339913C080917901873078F410927A014F
:1007400081E090E00E942A019FEF21EE84E0915029
:1007500020408040E1F700C00000E09179018E2F39
:1007600090E08830910508F0F8C0FC01EC5CFF4F88
:100770000C94B1074EE351E062E070E082E090E05B
:100780000E94360143E051E068E070E082E090E0D2
:100790000E9436018FEF80937801809377018093D8
:1007A0007601DBC045E051E061E070E082E090E07E
:1007B0000E94360144E451E063E070E082E090E0A2
:1007C0000E94360143E051E068E070E082E090E092
:1007D0000E9436018CED809378011092770110927F
:1007E0007601BBC045E051E061E070E082E090E05E
:1007F0000E94360148E451E062E070E082E090E05F
:100800000E94360143E051E068E070E082E090E051
:100810000E943601109278018CED8093770110923E
:1008200076019BC045E051E061E070E082E090E03D
:100830000E9436014EE451E063E070E082E090E017
:100840000E94360143E051E068E070E082E090E011
:100850000E94360110927801109277018CED8093FE
:1008600076017BC045E051E061E070E082E090E01D
:100870000E94360143E551E062E070E082E090E0E2
:100880000E94360143E051E068E070E082E090E0D1
:100890000E9436018CED809378018093770110924D
:1008A00076015BC045E051E061E070E082E090E0FD
:1008B0000E9436014AE551E062E070E082E090E09B
:1008C0000E94360143E051E068E070E082E090E091
:1008D0000E9436018CE880937801109277018FEFA7
:1008E000809376013AC045E051E061E070E082E03B
:1008F00090E00E94360141E651E062E070E082E063
:1009000090E00E94360143E051E068E070E082E050
:1009100090E00E9436018FEF8093780180EA809307
:10092000770184E18093760118C045E051E061E0F1
:1009300070E082E090E00E94360148E651E063E01A
:1009400070E082E090E00E9436018FEF80937801A2
:10095000109277018EEB80937601809102018130B5
:10096000D9F535C04091760150E06091770170E093
:100970008091780123E030E090E00E94A400CF5FF6
:1009800001C0C0E0DC1770F780910001823099F45B
:100990000FC04091760150E06091770170E0809146
:1009A000780122E030E090E00E94A400CF5F01C017
:1009B000C0E0DC1770F70E9400018FE39CE901970B
:1009C000F1F700C0000010920201DF5F01C0D0E02B
:1009D00080910101D817A8F2C0E00EC040917601C5
:1009E00050E06091770170E08091780123E030E081
:1009F00090E00E94A400CF5F80910101C81770F3BE
:100A0000809100018230A9F40FC04091760150E03E
:100A10006091770170E08091780122E030E090E011
:100A20000E94A400CF5F01C0C0E080910101C817FF
:100A300060F380917A01813009F427CE23CD809133
:100A40007901813009F483C038F0823009F42DC176
:100A5000833009F4D8C116CD49E051E061E070E07F
:100A600081E090E00E94360149E051E063E070E0EF
:100A700081E090E00E94360149E051E065E070E0DD
:100A800081E090E00E94360149E051E067E070E0CB
:100A900081E090E00E9436014DE651E061E070E0B7
:100AA00082E090E00E94360147E051E067E070E0AC
:100AB00082E090E00E943601309911C081E080937D
:100AC000790181E090E00E942A019FEF21EE84E00D
:100AD000915020408040E1F700C00000D3CC319914
:100AE00011C082E08093790181E090E00E942A01A8
:100AF0009FEF21EE84E0915020408040E1F700C05C
:100B00000000C0CC329911C083E08093790181E06C
:100B100090E00E942A019FEF21EE84E09150204056
:100B20008040E1F700C00000ADCC3399ABCC10920F
:100B30007A0181E090E00E942A019FEF21EE84E09B
:100B4000915020408040E1F700C000009BCC809194
:100B500078014AE050E06BE771E090E00E94B7074F
:100B600044E451E063E070E081E090E00E943601EF
:100B700045E051E061E070E082E090E00E943601E3
:100B800044E751E063E070E082E090E00E943601CB
:100B9000809178018A3088F443E751E064E070E0A6
:100BA00082E090E00E9436014BE751E066E070E0A1
:100BB00082E090E00E9436011BC0843688F444E74E
:100BC00051E064E070E082E090E00E9436014BE783
:100BD00051E065E070E082E090E00E94360108C0DC
:100BE0004BE751E064E070E082E090E00E94360163
:100BF00043E051E068E070E082E090E00E9436015E
:100C0000ECE7F0E08081807F84608083EAE7F0E0B9
:100C100080818064808380917A0086FDFCCF809102
:100C2000790080937801C0E00EC04091760150E0D9
:100C30006091770170E08091780123E030E090E0EE
:100C40000E94A400CF5F80910101C81770F38091CA
:100C500000018230A9F40FC04091760150E060910C
:100C6000770170E08091780122E030E090E00E940E
:100C7000A400CF5F01C0C0E080910101C81760F3FC
:100C8000339900CC82E080937A01109279019FEF32
:100C900021EE84E0915020408040E1F700C0000048
:100CA00081E090E00E942A01EDCB809177014AE03B
:100CB00050E06BE771E090E00E94B70748E451E034
:100CC00062E070E081E090E00E94360145E051E092
:100CD00061E070E082E090E00E94360144E751E07C
:100CE00063E070E082E090E00E943601809177013D
:100CF0008A3088F443E751E064E070E082E090E0FD
:100D00000E9436014BE751E066E070E082E090E03F
:100D10000E9436011BC0843688F444E751E064E049
:100D200070E082E090E00E9436014BE751E065E020
:100D300070E082E090E00E94360108C04BE751E08D
:100D400064E070E082E090E00E94360143E051E010
:100D500068E070E082E090E00E943601ECE7F0E0AD
:100D60008081807F84608083EAE7F0E08081806416
:100D7000808380917A0086FDFCCF809179008093FA
:100D80007701C0E00EC04091760150E0609177019C
:100D900070E08091780123E030E090E00E94A400B0
:100DA000CF5F80910101C81770F3809100018230FC
:100DB000A9F40FC04091760150E06091770170E096
:100DC0008091780122E030E090E00E94A400CF5FA3
:100DD00001C0C0E080910101C81760F3339952CB84
:100DE00082E080937A01109279019FEF21EE84E0F6
:100DF000915020408040E1F700C0000081E090E089
:100E00000E942A013FCB809176014AE050E06BE7D7
:100E100071E090E00E94B7074EE451E063E070E0BB
:100E200081E090E00E94360145E051E061E070E031
:100E300082E090E00E94360144E751E063E070E018
:100E400082E090E00E943601809176018A3088F439
:100E500043E751E064E070E082E090E00E943601F8
:100E60004BE751E066E070E082E090E00E943601DE
:100E70001BC0843688F444E751E065E070E082E00E
:100E800090E00E9436014BE751E065E070E082E0BF
:100E900090E00E94360108C04BE751E064E070E04A
:100EA00082E090E00E94360143E051E068E070E0AB
:100EB00082E090E00E943601ECE7F0E08081807FE4
:100EC00084608083EAE7F0E08081806480838091A1
:100ED0007A0086FDFCCF8091790080937601C0E096
:100EE0000EC04091760150E06091770170E08091F2
:100EF000780123E030E090E00E94A400CF5F809171
:100F00000101C81770F3809100018230A9F40FC06D
:100F10004091760150E06091770170E08091780116
:100F200022E030E090E00E94A400CF5F01C0C0E06A
:100F300080910101C81760F33399A4CA82E08093BD
:100F40007A01109279019FEF21EE84E091502040C8
:100F50008040E1F700C0000081E090E00E942A019B
:100F600091CAEE0FFF1F0590F491E02D09944532D0
:100F7000510520F4423010F00C94C207FB0110829E
:100F8000CB010895BB274A3031F4992322F4BDE206
:100F9000909581959F4F0C94CE07BB27FB01552759
:100FA000AA27880F991FAA1FA41710F0A41B8395C6
:100FB0005051B9F7A05DAA3308F0A95DA19300973D
:100FC00079F7B111B1931192CB010C94E707DC01D1
:100FD000FC01672F71917723E1F7329704C07C9170
:100FE0006D9370836291AE17BF07C8F30895F894AC
:020FF000FFCF31
:100FF2000126013E003C007F00DB00426173746108
:101002006F006465204C4544004D6F646500536574
:101012006C65637400417574004D616E0031204C43
:101022000032204C00436F6C6F72002F38005768FB
:101032006974650052656400477265656E00426CB2
:1010420075650059656C6C6F7700507572706C65D0
:10105200004F72616E67650050696E6B00522047E7
:06106200204200303000C6
:00000001FF
